:10000000801B0020E11800002B420000CD180000EA
:10001000CD180000CD180000CD1800000000000031
:10002000000000000000000000000000A11A000015
:10003000CD180000000000003D1A0000CD1800009F
:10004000551C0000551C0000E10E0000551C00006E
:10005000551C0000551C0000A1040000551C0000A8
:10006000551C0000551C0000551C0000551C0000CC
:10007000551C0000551C0000551C0000551C0000BC
:10008000551C0000551C0000551C0000551C0000AC
:10009000551C0000551C0000551C0000551C00009C
:1000A000551C0000551C0000551C0000551C00008C
:1000B000551C0000551C0000551C0000551C00007C
:1000C000551C0000551C0000551C0000551C00006C
:0C00D00085040000551C0000551C0000B9
:1000DC007BB972B90029BEBF00204FF0004106E089
:1000EC0008BF00281CBF6FF000414FF0FF3000F03C
:1000FC0057B8ADF1080C6DE904CE002909DB002BD3
:10010C001ADB00F04FF8DDF804E0DDE9022304B05F
:10011C007047404261EB4101002B1BDB00F042F8C1
:10012C00DDF804E0DDE9022304B0404261EB41015B
:10013C00524263EB43037047524263EB430300F0BC
:10014C0031F8DDF804E0DDE9022304B0404261EB54
:10015C0041017047524263EB430300F023F8DDF892
:10016C0004E0DDE9022304B0524263EB4303704721
:10017C0053B94AB9002908BF00281CBF4FF0FF3102
:10018C004FF0FF3000F00CB8ADF1080C6DE904CE67
:10019C0000F008F8DDF804E0DDE9022304B0704754
:1001AC00704700BF2DE9F04786468C460846089EEE
:1001BC00154674461946002B40F0C2808542B2FAAF
:1001CC0082F245D94AB1C2F1200300FA02FC2EFAA0
:1001DC0003F3954043EA0C0C94404FEA154EA8B239
:1001EC00BCFBFEF8230C0EFB18CC08FB00F943EA11
:1001FC000C43994528D9EB1808F1FF3704D29945DF
:10020C0002D9A8F102072B44A3EB0903A4B2B3FB58
:10021C00FEFC0EFB1C330CFB00F044EA0344A04232
:10022C0014D92C190CF1FF3304D2A04202D9ACF131
:10023C0002032C44241A43EA07401EB1D440002385
:10024C0034607360BDE8F0874746DDE76346F1E74D
:10025C0092BB431B01214FEA154EAFB2B3FBFEFC20
:10026C00200C0EFB1C330CFB07F840EA03439845AB
:10027C0062D9EB180CF1FF3004D2984502D9ACF1DD
:10028C0002002B44A3EB0803A4B2B3FBFEFC0EFB51
:10029C001C330CFB07F744EA0344A7424ED92C1934
:1002AC000CF1FF3304D2A74202D9ACF102032C4467
:1002BC00E41B43EA0040C0E7C2F1200320FA03F13B
:1002CC00954090402EFA03F303434FEA154EAFB21C
:1002DC00B1FBFEFC0EFB1C10190C0CFB07F841EAE1
:1002EC000041884504FA02F422D969180CF1FF3058
:1002FC0004D2884502D9ACF102002944A1EB0801D3
:10030C009BB2B1FBFEFC0EFB1C110CFB07F743EA86
:10031C0001439F420ED9EB180CF1FF3104D29F42DE
:10032C0002D9ACF102012B44DB1B41EA004192E7FC
:10033C006046E3E76146F7E76046A3E76346B7E745
:10034C00834206D916B9002108467BE7C6E900E0CE
:10035C00F9E7B3FA83F78FB9834201D3724508D812
:10036C00BEEB020460EB030301209C461EB9002186
:10037C0068E73846FAE7C6E9004CF8E7C7F1200C05
:10038C00BB4022FA0CF41C432EFA0CF120FA0CF3AD
:10039C00B84001434FEA14490EFA07F5B3FBF9F8DC
:1003AC001FFA84FE09FB18300B0C08FB0EFA43EA0B
:1003BC0000439A4502FA07F240D9E31808F1FF30DE
:1003CC0004D29A4502D9A8F102002344A3EB0A03F4
:1003DC0089B2B3FBF9F809FB183308FB0EFE41EAAE
:1003EC0003418E452CD9611808F1FF3304D28E4598
:1003FC0002D9A8F10203214443EA0040A0FB029871
:10040C00A1EB0E014145CE46434602D306D14D45E4
:10041C0004D2B9EB020E68EB04030138002EA6D00F
:10042C00B5EB0E0261EB030101FA0CFC22FA07F3A7
:10043C004CEA0303F940C6E9003198E74046C5E7AA
:10044C004346D9E710F8012B11F8013B012A28BFCC
:10045C009A42F7D0D01A7047034611F8012B03F8D3
:10046C00012B002AF9D17047034613F8012B002AFF
:10047C00FBD1181A01387047054AD2F84031012BCC
:10048C0001BF0021C2F84011A2F508325360704739
:10049C000040024038B54A4BD3F80041012C40F0E3
:1004AC008E800025C3F80051464800F073FA464888
:1004BC0000F070FA454800F06DFA454800F06AFA11
:1004CC00444800F067FA444800F064FA434800F0EE
:1004DC0061FA434800F05EFA424800F05BFA424889
:1004EC0000F058FA414800F055FA414800F052FA31
:1004FC00404800F04FFA404800F04CFA3F4800F0FA
:10050C0049FA3F4800F046FA3E4800F043FA3E48AC
:10051C0003F098FD3D4800F03DFA3D4800F03AFAF2
:10052C003C4803F08FFD3C4B3C48C3F80055C3F8E6
:10053C00005503F58043C3F8005503F58053384D3F
:10054C005C6003F580535C6003F580535C604FF096
:10055C008043DC6700F01EFA3248334C00F01AFA84
:10056C00324800F017FA324803F06CFD284600F0D0
:10057C0011FA4FF40030002103F00EF8D4F81031CA
:10058C00012BF3D1244A2B48C2F80035C2F80035B0
:10059C0002F58042C2F8003502F58052136002F574
:1005AC008052136002F58052136000F0F3F9224878
:1005BC0000F0F0F9BDE83840204803F043BD38BDE9
:1005CC0000600040444A00004E4A0000644A0000AB
:1005DC006F4A00007C4A0000B84A0000C54A00007F
:1005EC00E14A0000F74A00001A4B0000414B0000A2
:1005FC00694B0000834B00009F4B0000C14B000077
:10060C00E24B0000254C0000404C00004F4C000019
:10061C008C4C0000A04C000000300040B44C00009A
:10062C00F74C0000BF4C000000200040D94C0000EB
:10063C00E44C00002D4D0000384D0000424D0000F0
:10064C0000B54FF0A0438DB04FF0E072C3F8182501
:10065C00C3F808250223494C8DF80C302023ADF843
:10066C000E300399464D204600F004FD4FF48031C6
:10067C00204600F077FD4FF48031204600F044FD19
:10068C0000221146242001F031FA242001F012FA44
:10069C00204600F023FD4FF010230022C3F80C225B
:1006AC00384A07CA04AB83E8070028460ECB00F093
:1006BC0081FC95E80700344B0B9307AB83E80700EC
:1006CC0020680A900CAA12E903008DE803002F4859
:1006DC000ECB00F01BF92E4803F0B4FC2D4B01227D
:1006EC00C3F80425D3F80024002AFBD04FF01022C5
:1006FC004FF00041C2F80012D3F80024002AFBD0BE
:10070C004FF010234FF00042C3F80422214BD3F8D2
:10071C000024002AFBD00022C3F80425D3F80024BF
:10072C00002AFBD0194800F081F9002141F69A10FB
:10073C0002F032FF154800F063F94FF0A0430C2291
:10074C00C3F85427144B154AC3F810250122C3F8DB
:10075C00042300221146062001F0C8F9062001F0FE
:10076C00A9F90F4BA02283F8062340221A600D48EA
:10077C0003F068FC0A2002F02DFFFBE78405002043
:10078C00E0030020B0490000191A08078A05002070
:10079C00564D000000E001400060004001150200D1
:1007AC0000E100E06E4D000010B50138D0B0082813
:1007BC0000F29280DFE800F0059090909015532F96
:1007CC007700464803F03EFC4FF0A04344484FF4FA
:1007DC0000020021C3F80C2550B0BDE8104000F019
:1007EC00D7BB404803F02EFC3D49684600F0B2FBF5
:1007FC003D4B40F23F121846694603F03FFF037829
:10080C00002B69D1394803F01DFC354850B0BDE8C8
:10081C00104000F0B1BB3248334C00F0C3FB304900
:10082C00684600F097FB40F23F126946204603F001
:10083C0025FF2046FFF718FE0E284DD92C482146DF
:10084C0003F000FC94F82030002B45D1294803F02C
:10085C00F9FB234850B0BDE8104000F087BB20489E
:10086C00214C00F09FFB1E49684600F073FB40F2E0
:10087C003F126946204603F001FF04F12000FFF708
:10088C00F3FD132828D91C4804F1200103F0DAFBEE
:10089C00237C0BBB194803F0D5FB114850B0BDE8C5
:1008AC00104000F06FBB0E4800F07CFB0C49684612
:1008BC0000F050FB40F23F1269460B4803F0DEFE9D
:1008CC000F48FFF7D1FD132806D90E490E4850B03A
:1008DC00BDE8104003F0B6BB50B010BD7B4D00001E
:1008EC008A050020974D000020000020A84D000034
:1008FC00CB4D0000DF4D0000044E0000194E0000EF
:10090C0040000020300000203D4E000084B070B547
:10091C0005AC84E80E000FCC1A4D2E460FC622688B
:10092C0032600121D3B2C2F3072001FA00F001FAC0
:10093C0003F30343100E01FA00F0C2F30742914097
:10094C0003434FF0A0420B43C2F8183528460E491A
:10095C0000F084FB2846202100F086FB0022114683
:10096C00022001F0C3F8022001F0A4F8074B084A5A
:10097C00C3F834252846BDE87040FF2104B000F0D0
:10098C0065BB00BFEC0300201400020000200040F7
:10099C008A0600200FB470B5C2B046AC002554F8DE
:1009AC00046B0295FB22294603A803F075FE224630
:1009BC00314602A8019403F0AFFA0E49022202A8B4
:1009CC0003F076FE40B129460B48FF2203F064FE8B
:1009DC00094802A9FFF740FD02A8FFF745FD02A94F
:1009EC00C2B2064800F012FB012042B0BDE87040D4
:1009FC0004B07047514E00008B050020EC03002022
:100A0C0070B5084E337C01244FF0A04504FA03F373
:100A1C00C5F80835044803F02AFD337C9C40C5F822
:100A2C000C4570BDEC030020400D030070B5084E62
:100A3C00737C01244FF0A04504FA03F3C5F8083584
:100A4C00044803F014FD737C9C40C5F80C4570BD44
:100A5C00EC030020400D03002DE9F0438BB0B149AD
:100A6C00B14EB24FDFF8C8826A4603F067FE044607
:100A7C0014B90BB0BDE8F0832146304603F0E2FA1E
:100A8C000F223946204603F013FE18B90120FFF758
:100A9C008BFE3FE103224146204603F009FE00286D
:100AAC00F4D0A4490422204603F002FE08B9052024
:100ABC00EDE7A1490E22204603F0FAFD002800F0D4
:100ACC0029819E490422204603F0F2FD08B9062034
:100ADC00DDE79B490C22204603F0EAFD08B9032010
:100AEC00D5E798491322204603F0E2FD0028CDD02B
:100AFC0095490422204603F0DBFD0546B0B9934925
:100B0C006A46204603F01AFE90496A46284603F0CE
:100B1C0015FE84496A46284603F010FE03F0C4FD16
:100B2C008B4B80B2188003F01AFAF3E08949062245
:100B3C00204603F0BDFD78B984496A46204603F08F
:100B4C00FDFD78496A46002003F0F8FD0146824815
:100B5C00FFF782FC07209AE780490522204603F024
:100B6C00A7FD28BB7E497F48082203F0A1FD05465E
:100B7C00F0B97D496A46204603F0E0FD69496A46B2
:100B8C00284603F0DBFD03F08FFDC0B201380428CA
:100B9C0006D8DFE800F0030507090B00122076E702
:100BAC00112074E7132072E7142070E715206EE70C
:100BBC006E490522204603F07BFD054600283FD1F7
:100BCC006B496A46204603F0B9FD6A496A462846D5
:100BDC0003F0B4FD03F068FDA0F26C70654906905B
:100BEC006A46284603F0AAFD03F05EFD01385E4913
:100BFC0005906A46284603F0A1FD03F055FD5E49B9
:100C0C0004906A46284603F099FD03F04DFD5A49BD
:100C1C0003906A46284603F091FD03F045FD5749C1
:100C2C0002906A46284603F089FD03F03DFD0190D1
:100C3C0001A800F03BFB524BC3E90E010A2026E74A
:100C4C0050490A22204603F033FD054600283AD1CC
:100C5C0049496A46204603F071FD43496A462846D5
:100C6C0003F06CFD03F020FD3F496A4604B22846B0
:100C7C0003F064FD03F018FD6A463B4981462846A3
:100C8C0003F05CFD03F010FD40F2BE2294420346DB
:100C9C0002D14FF42F7046E740F2BF22944201D1AB
:100CAC00204640E7B4F5307FF3D00FFA89F040F2DC
:100CBC00931290423FF437AF1BB2082B0CBF40F697
:100CCC00FF701020E3E630490222204603F0F0FCCE
:100CDC00002863D12D492348FFF7B4FB08B90B203A
:100CEC00D5E62B491F480B2203F0E2FC08B90D2076
:100CFC00CDE628491B48042203F0DAFC08B90E2083
:100D0C00C5E6254917480A2203F0D2FC10B91F4842
:100D1C00FFF740FE03496A46002003F00FFD04462E
:100D2C00A6E600BF014E0000544E0000604E0000CD
:100D3C00714E0000754E00007A4E0000894E000086
:100D4C008E4E00009B4E0000AF4E0000B44E0000D3
:100D5C0088050020B64E000080010020BD4E00002A
:100D6C00C34E00008B050020CC4E0000CE4E000080
:100D7C00C34A0000524E0000D44E0000D64E000074
:100D8C00600100201A4F0000D84E0000DB4E00001E
:100D9C00E84E0000F44E0000F94E00003B490722DB
:100DAC00204603F085FC98B939493A480B2203F0E8
:100DBC007FFC20B938493948FFF7ECFDAAE73849E0
:100DCC0034480C2203F074FC0028A3D10F205EE6FB
:100DDC0034491522204603F06BFC08B9162056E660
:100DEC0031491122204603F063FC08B918204EE665
:100DFC002E490D22204603F05BFC08B9172046E66D
:100E0C002B490D22204603F053FC08B919203EE66D
:100E1C0028491022204603F04BFC08B9202036E666
:100E2C0025490522204603F043FC10B94FF46170AC
:100E3C0079E622491748FFF705FB80B920490222C1
:100E4C00204603F035FC50B91E496A46204603F093
:100E5C0075FC01461C48FFF7FFFA082017E61B49F2
:100E6C000C48FFF7EFFA00287FF454AF2378303B9F
:100E7C00092B3FF64FAF13496A46204603F05EFC40
:100E8C0001461348FFF7E8FA092000E6044F00007A
:100E9C000C4F00008B050020A00100205B4E0000D1
:100EAC00184F0000254F00003B4F00004F4F000033
:100EBC005D4F00006B4F00007C4F0000824F000024
:100ECC008B4F0000014E0000600100208E4F00008F
:100EDC007001002010B51A4BD3F80821012A0BD150
:100EEC0000241848C3F8084100F06CF9214600F1C1
:100EFC003202144800F04AF9114BD3F81021012AA0
:100F0C000ED1002410491148C3F8104103F09AF88F
:100F1C000D48FFF7A1FD0C48FF22214603F0BCFB56
:100F2C00074BD3F84421012A08D10021C3F84411FE
:100F3C00DA62BDE81040064803F084B810BD00BF6B
:100F4C0000200040F80300208A060020154E000007
:100F5C00984F000010B5044904464FF4A07203F0FA
:100F6C008DFB204610BD00BF600100200148FFF73B
:100F7C0011BD00BFA54F00000148FFF70BBD00BF1E
:100F8C00824F00000148FFF705BD00BF8E4F0000E7
:100F9C0011B10248FFF7FEBC0148FBE7B04F00005F
:100FAC00B74F00000248FF22002103F075BB00BFC1
:100FBC008B05002030B585B001AC84E80E00104BD9
:100FCC000022C3F800250299C3F80C150199C3F847
:100FDC0014150399C3F82415C3F86C25094AC3F8F2
:100FEC004425094AC3F834250822C3F800252346B2
:100FFC00054603CB286018686960A86005B030BD51
:10100C0000200040880800208907002038B50D48D2
:10101C0014460D46FF22002103F03EFB22460948F0
:10102C00294603F02BFB084B0122C3F848459A6074
:10103C00D3F82021002AFBD00022C3F82021012262
:10104C00DA6038BD8808002000200040024B0122E5
:10105C00C3F838151A60704700200040014BC3F8E4
:10106C000413704700200040014BC3F80012704776
:10107C000020004082B04FF080430191D3F8182437
:10108C00120C07D10122C3F818259A60D3F8042159
:10109C00002AFBD09DF80430012B0BD0022B14D06E
:1010AC007BB90B4B01229A605A60BDF80620C3F83D
:1010BC00082506E0074A93605360BDF80630C2F875
:1010CC000835019B036002B07047034BEAE700BF91
:1010DC0000B0004000100140004002400378012B9A
:1010EC0006D0022B07D013B9044B01221A607047AB
:1010FC00034A13607047034BF7E700BF00B0004092
:10110C0000100140004002400378012B0DD0022B4F
:10111C0015D04BB90F4BC3F804130F4BA02283F817
:10112C000B234FF400621A6070470C4BC3F8041386
:10113C00094BA02283F811234FF40032F3E7084B3C
:10114C00C3F80413044BA02283F8242310225A6002
:10115C00EAE700BF00B0004000E100E000100140F1
:10116C00004002400378012B06D0022B06D013B9A5
:10117C00034BC3F844137047024BFAE7024BF8E7F2
:10118C0000B00040001001400040024004290AD881
:10119C000378012B08D0022B0AD023B9064B01F59A
:1011AC00A87143F821207047044B01F5A871F8E7AA
:1011BC00034B01F5A871F4E700B0004000100140AA
:1011CC00004002400378012B07D0022B09D0064ABD
:1011DC00D2F80405054B18607047054BD3F804058D
:1011EC00F8E7044BFAE700BF00B000400004002011
:1011FC00001001400040024038B5044C044DAC4294
:10120C0000D338BD54F8043B9847F8E7A8490000D0
:10121C00A849000038B5054C256804EB850405B9D0
:10122C0038BD54F80439013D9847F8E79C49000053
:10123C00014B1B68184700BF0000002030B585B07B
:10124C0004460D4610220021684603F025FA0223BD
:10125C008DF802302A46044B01932146684602F071
:10126C00FFFB05B030BD00BF3D120000014B186004
:10127C00704700BF0000002080B505460E4617469B
:10128C00984602F0C5F9034603F0BAFADFF8189055
:10129C00044649F80030424630463946A84754F8CF
:1012AC00090000F097FB00BF080000002DE9F8438F
:1012BC0044690569C76840F26C73E1170135E4189D
:1012CC0041F10001022D8CBF00230123E41A61F1CE
:1012DC0000010029064607F1FF3751DA6FF4C77099
:1012EC0020184FF4C8724FF0000361F10001FEF7B3
:1012FC00EFFE264B03FB0044D6E90083B6684FEAA9
:10130C00E37C4FF03C0E99466346C6FB0E93A9FB5B
:10131C000EC60EFB0366A30840F26D1E022D0EFBDB
:10132C00043302463B448CBF6FF002000920642753
:10133C000544B4FBF7F499201B1B154C45431CEBDF
:10134C00080C4FF0050005F10205B5FBF0F5A2FB0A
:10135C0004202B4404FB010146EBE87698180D4A57
:10136C0041F1000380180C4A63F10003A0FB020159
:10137C0002FB031110EB0C0041EB0601BDE8F883F6
:10138C004FF4C87200232046B1E700BF70FEFFFF88
:10139C00B13A02009405F5FF805101002DE9F047A8
:1013AC00858B04462807904611D4022905F00705C1
:1013BC0040F0CD80204602F052FE78B10138A18B6E
:1013CC00042811D8DFE800F0C3106D8595000129C1
:1013DC000CBF45F0100545F02005A58388F3118856
:1013EC00BFF36F8FBDE8F08701F0070AAA4500F044
:1013FC00A6800027B9463E46A368002B00F0BD80AE
:10140C0041F00801A18388F31188BFF36F8FA168A5
:10141C00002900F0BB800D68002900F0B780D1F8DE
:10142C000480334652462046C047002D76D02B68A8
:10143C0029461D46F0E701F007035A1F012A1BD865
:10144C00002221F00701062B276889B2C4E900228B
:10145C0009D13B4603E0E28B0132E2831B68002B8F
:10146C00F9D141F00201A183204602F0F8FD0028D9
:10147C007BD041F0200177E0042B0AD121F0070149
:10148C0089B2A183204602F0EAFD10B141F020019F
:10149C00A183A18B01F0070AAA4550D00027B946B9
:1014AC00AAE7236921F0070141F00601062DD3F8C4
:1014BC000090A1832DD1B9F1000F40D041F008016B
:1014CC00A18388F31188BFF36F8F3A492046C84730
:1014DC0029E021F00701236941F0040189B2042DB0
:1014EC00D3F80490A183E6D000273E464FF0040ABF
:1014FC0082E721F00701236941F0050189B2052D2E
:10150C00D3F80890A183D6D000273E464FF0050AA9
:10151C0072E700273E464FF0060A6DE72B4687E739
:10152C00B9F1000FD1D14FF02003EFF3118883F301
:10153C001288BFF36F8FA38B23F00803A383A58BB3
:10154C00EA062ED525F01003A38305F00705A6693E
:10155C00A18B002EBFF66FAF00232768C4E90033C0
:10156C0021F0070141F00101A183A18B01F0070AD1
:10157C00AA454FF000097FF43FAF002F9BD041F0FC
:10158C000801A18388F31188BFF36F8F002FC7D098
:10159C003D68394633465246204602F08CFD2F46B4
:1015AC00F4E7AB067FF51AAF25F02003A38305F013
:1015BC000705FFE6EF400000014B03600020704779
:1015CC00C849000030BFFFF7FDBF00BF2DE9F04157
:1015DC000B4EDFF8308006EB0807CC1B0546324675
:1015EC000949204603F04AF8A01942460021083C5C
:1015FC0003F052F82C6707F10800BDE8F08100BF3A
:10160C000000000008000000A8490000044B996885
:10161C005869884203D003494FF080520A607047E2
:10162C005405002004ED00E070B5264B15469A6A6F
:10163C0012F0100F9A6A14BF1124102412F0080F24
:10164C009A6A18BF1224920706460AD5586B9A6AF2
:10165C00140634D519B19A6A22F080029A621324C6
:10166C0001E06FF01500174B9A6A12F0010F9A6A9D
:10167C0018BF142412F0200F9A6A18BF1524D20632
:10168C0002D49B6A9B070AD50E4B5B68190506D5DD
:10169C00314600F07BFA10B180F309880224094B23
:1016AC009A6A920642BF5A6A22F400525A629A6AA5
:1016BC0042F0FF029A6200232B70204670BD6FF03F
:1016CC001500CCE700ED00E0134B9A6A12F0007F96
:1016DC009A6A14BF1E201D2012F0807F9A6A18BFD0
:1016EC001F2012F4002F9A6A18BF212012F4802FA9
:1016FC009A6A18BF222012F4003F9A6A18BF23205E
:10170C0012F4803F9A6A6FEA02426FEA12429A62BE
:10171C0018BF2420704700BF00ED00E010B5194B36
:10172C000246986A9C6A10F4805F14BF172016203A
:10173C0014F4006F9C6A18BF1820A40509D5986B87
:10174C00986A000404D51AB19A6A22F400429A628B
:10175C0019200C4B9A6A12F4806F9A6A18BF1A20DF
:10176C00D2050CD49B6A13F4005F18BF1C20054AE9
:10177C00936A43F47F43936200230B7010BD1B20CC
:10178C00F5E700BF00ED00E0F0B5484B5B688BB0AF
:10179C000446C3F30803002585F31188BFF36F8F4C
:1017AC0002F07F40B0F17F4F11D102F00C000828FD
:1017BC000DD010074CBF0C4601250022033B8DF8C1
:1017CC000720032B05D8DFE803F0246367602C4661
:1017DC00F3E700239DF80720CAB902AE04F12007F5
:1017EC0020686168324603C20834BC421646F7D101
:1017FC00099A002D54D0C2F3080121B96FEA522284
:10180C006FEA4222099202A9184602F002FD0BB0BF
:10181C00F0BD264BDA6A9107DBD4DA6A002AD8DBF2
:10182C00DA6A5200D5D55A69A16942F480725A61BC
:10183C00BFF34F8FBFF36F8F5A6931F8021C22F43C
:10184C0080725A61BFF34F8FBFF36F8F4DF60272E8
:10185C0091420AD09A6AD2B24AB10DF10702012123
:10186C002046FFF7E1FE0346B4E72368B2E79A6A25
:10187C0012F47F4F05D00DF107010120FFF74EFF49
:10188C00F1E79B6AB3F5803FA3D3FFF71DFFEAE7AF
:10189C000DF107020021E3E70DF107010020EDE750
:1018AC0022F4FF7222F00102ACE700BF00ED00E071
:1018BC00024A536943F010035361704700ED00E096
:1018CC00EFF30880EFF3098101B57246FFF75CFF77
:1018DC0001BD00BF002080F31488BFF36F8F00F0B0
:1018EC0051FB00200D490860BFF34F8F0C4880F36B
:1018FC00088800F03DF8202080F3118809484FF447
:10190C000461401880F30988EFF314800221084326
:10191C0080F31488BFF36F8F00F000F994ED00E0B2
:10192C00801B0020C00D0020BFF34F8F0549064BD4
:10193C00CA6802F4E0621343CB60BFF34F8F00BF61
:10194C00FDE700BF00ED00E00400FA050749D1F8FF
:10195C0090200023C2F307221846934200DB704705
:10196C00C1F89830C1F8A0000133F6E700ED00E0B3
:10197C0008B572B6002383F31388FFF7E7FF144B07
:10198C004FF0FF32C3F88020C3F88420C3F88820BE
:10199C00C3F88C20C3F89020C3F89420C3F8982087
:1019AC00C3F89C20C3F88021C3F88421C3F8882194
:1019BC00C3F88C21C3F89021C3F89421C3F8982163
:1019CC00C3F89C2162B6BFF34F8FBFF36F8F08BD76
:1019DC0000E100E0084B9B6883420BD1EFF30583D9
:1019EC0043B1064B5A6842F080525A605A6A22F44C
:1019FC0000425A6202F0FABD5405002000ED00E0EE
:101A0C00094A93686FF00A019967084958674B684F
:101A1C0043F080534B60002383F31188BFF36F8F27
:101A2C009368986F704700BF5405002000ED00E0EC
:101A3C0015498A684FF030001044EFF3098C80E8A8
:101A4C00F01F202080F31288BFF36F8F0F4F4FF0E1
:101A5C0000664A698A603E604FF070041419206871
:101A6C000B4C2060506F0023536780F3118804B532
:101A7C00104600F009F9BDE8044002F1300090E88E
:101A8C00F01F8CF3098870475405002004ED00E02A
:101A9C00040400201EF0040F0CBFEFF30880EFF3DA
:101AAC000980816911F8021C0229FFD001B502F0EE
:101ABC00B2FB01BD40B2002807DB044A41090123F7
:101ACC0000F01F00834042F82130704700E100E035
:101ADC00054B420900F01F0053F82220012303FAA2
:101AEC0000F01040704700BF00E100E040B2002859
:101AFC00A8BF00F1604001F10101B8BF064B4FEAED
:101B0C004111ACBF00F5614000F00F00C9B2B4BF89
:101B1C00195480F80013704714ED00E00B4A08B517
:101B2C000B4B22F07F029A60BFF34F8FBFF36F8F86
:101B3C00D3F8882022F47002C3F8882001F02AF927
:101B4C0001F0B8FD00F074F801F076F90000000027
:101B5C0000ED00E042F8203C009B42F81C3C0A4996
:101B6C00019B42F8183C029B42F8143C21F0010105
:101B7C004FF0807342F8043C42F8081C0023203AD2
:101B8C0002654367704700BF85120000094A03468F
:101B9C00906870B113F1160F006E05D0A0F14002E1
:101BAC009A4205D8834203D2814228BF0020704755
:101BBC00002070475405002008B514460A4A0B4B08
:101BCC009060026F1A600D4600F05EF8204685F3B7
:101BDC000988002163B681F31188BFF36F8F00224F
:101BEC000023FFF749FB00BF54050020040400202C
:101BFC00014910220A60704710ED00E072B64040B7
:101C0C0080F31188BFF36F8FBFF34F8F30BF62B675
:101C1C00BFF36F8F704700BF72B6494081F31188D4
:101C2C00BFF34F8F20BF80F3118862B6704700BF9F
:101C3C00044800232021C2180133272B82F80013FB
:101C4C00F9D1704700E100E001B5EFF30580A0F198
:101C5C0010004FEAC0000449014409C99847BDE887
:101C6C0001400249084700006448000019160000B2
:101C7C00024B034A0348012100F076B80000012012
:101C8C0000000020C8490000026E054B403A1A6063
:101C9C00044A4021C3E901121846012100F06EB834
:101CAC000804002000000B15084AC2F898000B68C5
:101CBC0023F01F03034343F01003C2F89C308B68DE
:101CCC0043F00103C2F8A030704700BF00ED00E004
:101CDC002DE9F043DFF8608085B00E461F460446C0
:101CEC004FF00009B14523DA6068D8B13FB1411E0D
:101CFC0008421BD11F2819D92368194216D1236811
:101D0C00019302F097FAA36803430393D8F8905019
:101D1C00C5F30725D0B2013DA84207D801A9FFF7AA
:101D2C00C3FF421C09F101090C34DBE76FF015020B
:101D3C00104605B0BDE8F08300ED00E0044B052231
:101D4C00C3F89420BFF34F8FBFF36F8F704700BF62
:101D5C0000ED00E0BFF35F8F024B0022C3F894202C
:101D6C00704700BF00ED00E010B5034C0123227852
:101D7C00FFF7AEFF207010BD8709002008B50B4A95
:101D8C0000231278FFF7A4FF10F1160F07D0084AB2
:101D9C000021D2F89030C3F30723984200DB08BD32
:101DAC00C2F89800C2F8A0100130F2E787090020B1
:101DBC0000ED00E02DE9FF41524B534CD3F890302D
:101DCC002568C3F307239D4200F29980FFF7C2FFF9
:101DDC0000200C26854218D14C4C4D4F257068467E
:101DEC00FFF7EAFBDFF81C8106460025AE4213D153
:101DFC00237844490020D1F89020C2F30722934263
:101E0C0077DBFFF79BFF00201CE0616806FB0011ED
:101E1C00FFF74AFF0130DDE7009800EB05114FEAB0
:101E2C00051CCB683B40B3F5000F50D00DD8B3F573
:101E3C00001F36D0B3F5800F3ED0B3F5801F13D002
:101E4C006FF0150004B0BDE8F081B3F1807F47D08E
:101E5C00B3F1007FF4D150F80C3088684A6802F076
:101E6C00E9F940F4802009E050F80C3088684A68A1
:101E7C0002F0E0F940F0885040F43020CDE9012325
:101E8C000390D8F890302078C3F30723013B984295
:101E9C00D6D801A9FFF708FF237801332370013549
:101EAC00A4E750F80C3088684A6802F0C3F940F097
:101EBC00885040F40020E1E750F80C3088684A68FC
:101ECC0002F0B8F940F0E06040F40030D6E750F88A
:101EDC000C3088684A6802F0ADF940F08270CDE7AA
:101EEC0050F80C3088684A6802F0A4F940F0887009
:101EFC00C4E7C1F89830C1F8A00001337BE74FF07C
:101F0C00FF309FE700ED00E0D44900008709002076
:101F1C000000F0FF08B5024B1B689847002008BD75
:101F2C0014040020034B044A1860937843F0020316
:101F3C0093707047140400200400002008B5064973
:101F4C00064821F00701C1F1005202F5803202F07F
:101F5C003AF8002008BD00BFC71B00201804002061
:101F6C00024B0122C3F840250020704700E00140DD
:101F7C0020B1034B800143F001031847704700BFA9
:101F8C00C049000000F0EABB70B50D460649411A85
:101F9C00044649110548402202F07DF92B460146C2
:101FAC002046BDE870401847380400205048000017
:101FBC0037B50C460A490B4A411A40230093491184
:101FCC0005462346084802F093F9011E05DA284617
:101FDC00234603B0BDE83040184703B030BD00BF06
:101FEC0038040020694300005048000010B54FF041
:101FFC002003EFF3118483F31288BFF36F8F074A2A
:10200C00136823F00201DB07116002D4012002F0F7
:10201C00D2F984F31188BFF36F8F10BD90040020A8
:10202C00002270B5012104461046FFF75FFD0F48F2
:10203C0000F02CFD0E4B984215D100F037FD2669AF
:10204C000C49304602F05BF800280BDB0125B56427
:10205C002469084904F1200002F051F8002801DB42
:10206C006565002070BD6FF00400FBE7B92000002F
:10207C000000AD0BF449000070B501460C23094873
:10208C004B43C418D4E91056483300221844226438
:10209C0002F0EEF82DB132462B460348BDE87040F5
:1020AC00184770BD380400205048000010B10128BA
:1020BC0004D07047034B9B6C5B0701D1FFF7DCBF6F
:1020CC00704700BF3804002008B54FF02003EFF331
:1020DC00118183F31288BFF36F8F124A136843F098
:1020EC0002001060DA0708D481F31188BFF36F8FF8
:1020FC000120BDE8084000F0EBBC4FF08043D3F862
:10210C000C24D3F80C34DB07EED5074802F0B0F8FA
:10211C0081F31188BFF36F8F0020BDE80840FFF7F3
:10212C00ABBF00BF90040020800400201FB500222C
:10213C000123CDE90223094ACDF800D06B46CDF836
:10214C0004D002F004F9002805DB4FF48042002390
:10215C00684601F087FA05B05DF804FB7B4300008C
:10216C0010B5074C23782BB94FF4A57002F07FF90A
:10217C0001232370BDE81040002000F0A9BC00BF73
:10218C00880900202DE9F0413849BFF35B8F0746E1
:10219C00012251E8003F41E800200028F9D1BFF3AB
:1021AC005B8F33B9324933484B60CB608A6001F0A6
:1021BC00B9FF7B1E012B2BD8012F07D14FF0804389
:1021CC00D3F81C3403F00303012B21D002F057F990
:1021DC000546F8B9284B1B78E3B14FF08043022237
:1021EC00C3F808230646DFF894804FF08044D4F8F7
:1021FC001824D4F81834D20316D503F00303012B9A
:10220C0001D0012F10D15DB386F31188BFF36F8F0E
:10221C00BDE8F0814FF02003EFF3118683F31288B1
:10222C00BFF36F8F0125DEE7ADB13046FFF7F4FC4D
:10223C00D4F81835002BDAD1D4F80421002AD6D0E2
:10224C00C4F80431D4F804310123C4F81835C8F8A3
:10225C008031A360CBE70021212001F09DF9E7E755
:10226C004FF080430222C3F80423D1E7340400204A
:10227C0024040020580400209A0D002000E100E006
:10228C0010B5044C2046FEF7F1FF2046FFF74AFE3E
:10229C00002010BDA5220000F7B5144E8DF80700E4
:1022AC0004460325EFF311874FF0200181F31188C9
:1022BC0001220DF10701002000F0E8FC87F31188E2
:1022CC0020B101233370204603B0F0BD3378002BCE
:1022DC00F9D0013D08D002F0D2F80028E2D100215B
:1022EC00422001F059F9DDE73570ECE7890900204F
:1022FC0070B5012383400E4ABFF35B8FDC4352E879
:10230C00001F01EA040542E80056002EF7D1BFF386
:10231C005B8F4FF4803282400648C0F80823BFF32D
:10232C005F8FBFF36F8F0B4214BF0120002070BD75
:10233C00980400200010014070B40E49D1E900341B
:10234C00D01AC31844F1000422F07F46C1E90034CE
:10235C00A6F50013B3F5400F09D2074B1B681A0AF8
:10236C001B069C19054B42F10005C3E9004570BCE6
:10237C0001F076BAB00200209C040020B8020020C4
:10238C0011B3BFF35B8F0123104A834052E800CF97
:10239C004CEA030C42E800C10029F7D1BFF35B8F74
:1023AC000B4A4FF480338340C2F80433094BBFF31C
:1023BC005B8F1B68BFF35B8FC340DB0742BF064BD1
:1023CC004FF40032C3F80021704700BF980400207E
:1023DC00001001409404002000E100E00D4B18684F
:1023EC00010A0006BFF35F8F0B4BD3F804351818A6
:1023FC0041F10001B3F5801F0AD2084BD3E9002349
:10240C00904271EB030303D210F1807041F1000193
:10241C00704700BF9C04002000100140B80200204F
:10242C002DE9F04F85B016461F469DF840A0044696
:10243C00FFF75EFF0190FFF7D1FFB04271EB07038E
:10244C0054D23E4B301A67EB0101984271F10001F6
:10245C004FD23B4B03EB0413D3E902239F4208BF3B
:10246C0096425ED037494FF4803804F1500508FA93
:10247C0004F8AD00C1F848832046ADB201F07AFFF4
:10248C0026F07F4B05F1804504F5A87305F58835DA
:10249C00DC464FF003090293029A2CF07F4341F87B
:1024AC002230C1F84483D1F80435274A6FF002007A
:1024BC00C01A604420F07F40904232D9286868B13D
:1024CC00D1F804350393A3EB0B0020F07F40B0F55B
:1024DC00000F26D9204601F04DFF039BBAF1000FE7
:1024EC0007D109EB030C09F10109D5E7BAF1000F8B
:1024FC0009D06FF0150520460199FFF741FF2846DA
:10250C0005B0BDE8F08F0123104ABFF35B8FA340E9
:10251C0052E8000F184342E800010029F8D1BFF33C
:10252C005B8F07490E98230101EB0412C8500F9BD7
:10253C005360C2E902670025DDE700BF010080009F
:10254C00A002002000100140FDFF7F009404002039
:10255C007FB51C4C1C4BC4F80833C4F848331B4BD8
:10256C0000254FF0FF304FF0FF31C4F80855C3E998
:10257C0002014FF48033C4F80433154B02264FF498
:10258C0000320121C4F804631120C3F880212A46CB
:10259C00FFF7ACFA1120FFF78DFA0E4A0123A36066
:1025AC00236013600C4B0D4A0093CDE901550023B9
:1025BC002846FFF735FF3046FFF7E4FD284604B008
:1025CC0070BD00BF0010014003000F00A0020020EE
:1025DC0000E100E09804002045230000FFFF7F008D
:1025EC002DE9F7432F4CD4F8043399070BD5D4F8C5
:1025FC00043143B12C4A0023C4F80431D4F804311B
:10260C00136801331360D4F80433DA032AD5BFF30B
:10261C005B8F264B53E8002F22F0010143E800109A
:10262C000028F7D1BFF35B8FD30702D4D4F8403125
:10263C00C3B10025C4F84051D4F84031FFF7CEFEA9
:10264C004FF02003EFF3118283F31288BFF36F8FE7
:10265C00174BD3E90267B042B94106D282F3118815
:10266C00BFF36F8F03B0BDE8F0834FF0FF384FF02E
:10267C00FF39C3E90289D3E900101D604FF48033A0
:10268C00C4F84833C4F84051D4F8403182F311886F
:10269C00BFF36F8F0029E5D0009032463B462846A9
:1026AC008847DFE7001001409C04002094040020C0
:1026BC00A002002030B5431C124C85B005D08442DA
:1026CC00A8BF0446012CB8BF0124FFF787FE0E4BB0
:1026DC000C4DD3E90013401AB0F5000F10D222189C
:1026EC00AA4228BF2A4652184FF000000749009111
:1026FC00CDE9010043F10003FFF792FE05B030BDB8
:10270C002A46F0E7FFFF7F00B002002045230000BF
:10271C0008B5FFF763FE024B1B68C01A08BD00BF6B
:10272C00B00200204FF0704393F8E02F062A09D135
:10273C00D3F8E83FC3F30313033B042B02D8024A3C
:10274C00D05C704700207047EB4F0000024AD2F873
:10275C000034002BFBD0704700E0014008B501F0BD
:10276C0019FE40B14FF080538B4AD3F82433C3F396
:10277C000423C2F84035FFF7D5FF10B1874B884AC8
:10278C005A6701F007FE48B14FF080534FF080427A
:10279C00D3F84432C3F34233C2F83C35FFF7C2FFDF
:1027AC0030B1804AD2F8FC3023F08073C2F8FC3090
:1027BC0001F0F0FD40B14FF080430022C3F80C2132
:1027CC00C3F81021C3F83825FFF7ACFF20B14FF048
:1027DC0080430322C3F8A025FFF7A4FF60B1724B1E
:1027EC000522C3F810260122C3F888260022C3F85C
:1027FC0018263F22C3F814264FF08053D3F830210B
:10280C00511C09BF4FF07043D3F8343193F8E02FCB
:10281C00D3F8E83F08BFC3F30313062A4DD1033B9B
:10282C00042B03D8614AD35C002B46D04FF0805266
:10283C005F4BD2F80414C3F82015D2F80814C3F86F
:10284C002415D2F80C14C3F82815D2F81014C3F8B8
:10285C002C15D2F81414C3F83015D2F81814C3F888
:10286C003415D2F81C14C3F84015D2F82014C3F850
:10287C004415D2F82414C3F84815D2F82814C3F818
:10288C004C15D2F82C14C3F85015D2F83014C3F8E8
:10289C005415D2F83414C3F86015D2F83814C3F8B0
:1028AC006415D2F83C14C3F86815D2F84014C3F878
:1028BC006C15D2F84424C3F8702501F06BFD48B1B7
:1028CC004FF080534FF08042D3F8583203F04F034F
:1028DC00C2F8E43E01F05EFD48B14FF08043D3F8FE
:1028EC000024D20744BF6FF00102C3F800244FF05C
:1028FC008053D3F83021062A26D1D3F83431033B48
:10290C00042B02D82B4AD35C63B12B4AD2F83C3748
:10291C0043F48063C2F83C374FF08053D3F8303126
:10292C00062B11D14FF08053D3F83431033B042BD9
:10293C0002D8224AD35C3BB14FF01023D3F80822C3
:10294C004FF08043C3F858254FF01021D1F80C32CA
:10295C00DB071FD51A480123C0F80435FFF7F6FE34
:10296C00D1F80C3223F00103C1F80C32FFF7EEFE64
:10297C000023C0F80435FFF7E9FEBFF34F8F094978
:10298C00104BCA6802F4E0621343CB60BFF34F8F65
:10299C0000BFFDE708BD00BF0030014000C007408C
:1029AC000DF0ADBA00ED00E000500040E64F000025
:1029BC0000C00040E14F000000100040DC4F000060
:1029CC0000E001400400FA05F7B5044618B10128EF
:1029DC0023D003B0F0BD4FF080430222C3F808238C
:1029EC000122DA60C3F80401D3F80431064601234E
:1029FC008DF8073042F210754FF08047D4B1012C9E
:102A0C00E7D1D7F80C3403F48033AEBB83B3012089
:102A1C0001F0CFFC013DF4D12AE04FF080430022BD
:102A2C00C3F808035860C3F80021D3F800310DF146
:102A3C000706DCE7D7F8183403F480333EB9002BD3
:102A4C00C7D0012001F0B5FC013DF3D1C1E7D7F8A7
:102A5C00182402F003023260002BBAD09DF8070054
:102A6C00012803D101F0A5FC013DC7D1012CB0D147
:102A7C00054B00225A71ACE7D7F80C2402F0010286
:102A8C003270002BEAD1F3E7A0040020044B1A7932
:102A9C0022B9012218609A80024870470248704798
:102AAC00A00400200000AD0B0C00AD0B08B5074BCB
:102ABC001B682BB10020FFF70BF808B9FEF7FAFFE3
:102ACC004FF080430022C3F8182508BDA004002055
:102ADC0038B5B0B1012855D14FF080420023C2F86F
:102AEC000031D2F80021304A03F1804301211960F2
:102AFC002E4B1B68002B50D04FF08043C3F80403BF
:102B0C0040E04FF08043D3F81814D3F81824C803CE
:102B1C002AD502F00303012B04D013B10020FFF7D8
:102B2C0053FF00234FF08042C2F818350023C2F83F
:102B3C000431D2F804311E4AD2F8FC0040F0807304
:102B4C00C2F8FC301B4B1C6844F0010119605D6835
:102B5C005968491BB1F50A5FFAD31C60C2F8FC0036
:102B6C000823154A0220BFE7D3F81424D107D8D57F
:102B7C00D3F81C249207D1D40C4A12681AB1022241
:102B8C00C3F8042338BDD3F80421002AFBD000225B
:102B9C00C3F80421D3F80431F4E71368002BFCD0FC
:102BAC00002313601368EDE700010040A00400202F
:102BBC0000ED00E0001000E00401004010B54FF003
:102BCC008043D3F800216AB10022C3F80021D3F866
:102BDC0000210122C3F80823114B587910B95A71FE
:102BEC001B6898474FF08043D3F8042172B1002240
:102BFC00C3F80421D3F80421D3F81824D3F81824EB
:102C0C00920704D10122C3F818259A6010BD022244
:102C1C00C3F80823024BBDE810401B68012018477D
:102C2C00A004002008B5144BA8220021184601F07E
:102C3C0033FD0322026111494261114A8161C26173
:102C4C004FF480620262002282624262C2620166BA
:102C5C000C4941661021816603460267C2664267D1
:102C6C00BFF35F8F084911F8010D98540132102AF7
:102C7C00F9D1BFF35F8F08BDA8040020F04F00000E
:102C8C009A0900208A09002009500000F8B5144B5D
:102C9C00182700FB07751D4407FB00330E46DB6A43
:102CAC00012B14460AD0022B14D023B9284601F06C
:102CBC0084FB844208D900242046F8BD284601F044
:102CCC007CFB844228BF044622463146284601F04C
:102CDC007DFBF1E72846BDE8F84001F094BB00BF4E
:102CEC00A804002038B54FF02003EFF3118583F3CF
:102CFC001288BFF36F8F064B9C6801F047FB85F37E
:102D0C001188BFF36F8F2046BDE83840FEF762BED6
:102D1C0054050020104B70B553F82040013053F887
:102D2C002060A64200D870BDD4E9003595B153B1EE
:102D3C002846984738B10028B8BF4042EB68FF28B6
:102D4C00A8BFFF201870EA68537843F00103537052
:102D5C000834E6E79847FBE72C4A000008B50B4B14
:102D6C00012203201A70FFF7D5FF00F0FDFD01F0E2
:102D7C00F7F80420FFF7CEFF00F014F9FDF760FC24
:102D8C00034A137B23F00103137308BD9A0D002033
:102D9C004003002008B50348034A0021121A01F031
:102DAC006AFB08BD20000020A00D002070B5002398
:102DBC0086B00122CDE90423194E1A4D01930F223E
:102DCC00CDE902321849142303FB005506EBC0165B
:102DDC0004464FF4C070154B00954FF4A07200FBE5
:102DEC000411304600F096F8737B114AEE6023F024
:102DFC00040373734FF4046304FB033313446B60D9
:102E0C000C4B2C74BFF35B8F53E8001F013143E86C
:102E1C000012002AF8D1BFF35B8F06B070BD00BF63
:102E2C00C002002054050020001600203B46000084
:102E3C00C00D00205005002080B50020A6B0FFF783
:102E4C0069FF2D4B83F308882C4D2D4E6B692D4F4C
:102E5C0043F400736B610024E02385F82230EC7797
:102E6C002C766C76AC7685F820406B6A43F4E023C4
:102E7C006B6285F82340FEF71BFDFEF7B9FE4FF0A1
:102E8C00FF33AB62EB62FEF795FFFEF7F1FE40F20B
:102E9C000113ADF8243006ABB360CDE91E44219488
:102EAC0001F0EBFB0120FFF735FF0220164DFFF779
:102EBC0031FF00F0E7FA154B7561059301231449B6
:102ECC000094CDE903434FF480623B46CDE90144C5
:102EDC00284600F01FF86A7B064622F004022846BA
:102EEC006A7301F00CFB2046FFF760FF3A4631464F
:102EFC002846FEF761FE00BF0016002000ED00E042
:102F0C0054050020692D0000400300200A500000E9
:102F1C00801700202DE9F04385B00F460732109939
:102F2C0001739846042100F1580322F00706C0E90A
:102F3C001633417300230F99836016F14005C0E9E5
:102F4C00063304468173C37307F1400905D340402F
:102F5C0080F311884FF0040002DF3D4429462046DF
:102F6C00FEF734FB07300E9B20F00700A066C4E987
:102F7C00189602930D9B01932D1A0C9B00932A46D5
:102F8C00434639462046FEF7E5FD00236365044BB6
:102F9C009B6803B1DB6EE366284605B0BDE8F083A1
:102FAC005405002070B5224C224D86B02646AE4208
:102FBC0004F130040AD300F035FA1D4C1E4EAC421D
:102FCC0020D306B0BDE8704000F040BA54F80C3C79
:102FDC00059354F8103C049354F8143C039354F8A0
:102FEC00183C029354F81C3C019354F8203C009379
:102FFC0054E90A2354E90C01FFF78CFF54F8303CD8
:10300C005E65D3E7D4E90A23B3F1FF3F08BFB2F101
:10301C00FF3F05D052EA0301206803D100F0D0F93C
:10302C003034CCE73146183000F0A4FBF8E700BF91
:10303C009C4900009C490000A5450000C3897F2BDA
:10304C0012D80A4B1B6863B1094B90F90E201B6810
:10305C009A4209DB437BDB0606D1064BC31A18BF29
:10306C00012303F0010070470023FAE77C050020E0
:10307C0078050020C0020020044BC01A044BC0107D
:10308C005843044B01221A54704700BFC003002060
:10309C00ABAAAAAA9B0D002070B50E4B0E4C1E7C41
:1030AC0006EB460304EBC3040546204601F0CBFABD
:1030BC000A4B002228469A55FFF7C0FF48B1084B2F
:1030CC0008491A68013A2046D317BDE8704000F051
:1030DC0051BB70BD54050020C00300209B0D002087
:1030EC007C0500208530000038B50D4D2B4653F87B
:1030FC00184F9C4200D004B9EC68AB6838B95A7BC5
:10310C00D20604D1A26912B9DA897F2A05D89C4269
:10311C0002D02046FFF7C0FF23466B6138BD00BFCD
:10312C005405002070B590F90D20437B002A014610
:10313C0004DA03F07F03437301F0A7F94B7B154AC4
:10314C0063F07F0310464B7350F8183FD4698342E9
:10315C0008BF002323B9C1E900042160D1610CE050
:10316C0091F90E5093F90E60B5420ED0AE420CDDC3
:10317C005868C1E90030016059609068431A5842A0
:10318C00BDE870405841FFF7AFBF9C42E3D01B68CD
:10319C00E0E700BF5405002070B490F90D30427B7D
:1031AC00002B29DBD30627D183692BBB134962F093
:1031BC007F0242730A4652F8184F944218BF2346B6
:1031CC00CC6923B9C0E900242060C8610CE090F9F7
:1031DC000E5093F90E60B5420AD0AE4208DD5A6823
:1031EC00C0E900321060586070BC0020FFF77CBF53
:1031FC00A342E7D01B68E4E770BC7047540500207D
:10320C0008B590F90D20437B002A014604DA03F03F
:10321C007F03437301F039F9044B9868431A584201
:10322C005841BDE80840FFF75FBF00BF54050020C0
:10323C0070B515461C46064601F039F9B4F1FF3F4E
:10324C0008BFB5F1FF3F08D02A46234606F1180007
:10325C000249BDE8704000F08DBA70BDA545000074
:10326C002DE9F041002A437B0E460CBF10210821AA
:10327C00194204460AD10B43DD0903F09F0211D118
:10328C004273082914D00120FFF72EFF1B4B9B68BB
:10329C00A3422CD1EFF305834BBB3046BDE8F04184
:1032AC00FEF7AEBB03F01F03437301F0EEF8E8E743
:1032BC00A36813B1204601F0F0F804F1180001F0F6
:1032CC00C2F904F158074FF00008A56DBD42DAD0E1
:1032DC00002DD8D0284601F0E0F805F1180001F0D7
:1032EC00B2F9C5F878802846FFF756FFEDE786F36C
:1032FC001188BFF36F8FBDE8F08100BF540500202B
:10330C0038B54FF02003EFF3118583F31288BFF328
:10331C006F8F104B104A9C681068A04206D1FFF7C3
:10332C00BBFE85F31188BFF36F8F38BD00211B7C6A
:10333C0011600A4AD35C002BF3D02046FFF77EFEC7
:10334C000028EED0637BDB0602D12046FFF7EAFEB5
:10335C002046E4E754050020740500209B0D002056
:10336C0070B50C480C4D86682E600C461146DDE994
:10337C0004234FF02006EFF3118586F31288BFF378
:10338C006F8F8068FFF754FF2046BDE87040FEF752
:10339C0037BB00BF540500207405002049B9EFF37A
:1033AC00058030B9054B5A699B689A4201D0FEF7EB
:1033BC0027BB81F31188BFF36F8F70475405002032
:1033CC0010B54FF02002EFF3118482F31288BFF393
:1033DC006F8F427B510704D484F31188BFF36F8F36
:1033EC0010BD22F004024273FFF7D6FE21460248BC
:1033FC00BDE81040FFF7D2BF9C0D0020034648B932
:10340C00EFF3058232B9064A51699268914201D0B4
:10341C00FEF7F6BA83F31188BFF36F8F704700BFC6
:10342C00540500204FF02003EFF3118183F3128831
:10343C00BFF36F8F044B9A68D37B013BD37381F33B
:10344C001188BFF36F8F70475405002010B54FF0F3
:10345C002003EFF3118483F31288BFF36F8F084BB3
:10346C009A68D37B0133D3730020FFF73DFE84F3BE
:10347C001188BFF36F8FBDE8104001F0ADB800BFED
:10348C0054050020024B03F11802C3E906227047D1
:10349C0054050020F8B54FF02003EFF3118583F3AA
:1034AC001288BFF36F8F19498868437B03F07F0341
:1034BC00437300F0EAFF8B685A7B084662F07F0288
:1034CC005A7350F8182FCC69824208BF002222B9D7
:1034DC00C3E900042360CB610CE093F90E6092F910
:1034EC000E70BE420ED0B7420CDD5168C3E900210C
:1034FC000B6053600120FFF7F7FD2846BDE8F8404C
:10350C00FEF77EBAA242E3D01268E0E75405002031
:10351C0050EA01032DE9F04105460E4603D1FFF7B1
:10352C00B9FF00202CE0831C71F1FF332ADB01F082
:10353C00A0F82C184FF02003EFF3118883F31288B6
:10354C00BFF36F8F114F124BB8681860FFF758FE1E
:10355C00B86810492A463346183000F00BF9BA689F
:10356C00537B43F0100353734046FEF749FA01F0C6
:10357C0080F8201A63EB0303012873F10003D0DBFE
:10358C00BDE8F0816FF00104241AD3E75405002044
:10359C0074050020A5450000B1F1FF3F08BFB0F154
:1035AC00FF3F08B506D10A4B986800F0B8FF4FF002
:1035BC00FF3008BDFFF7ACFF4FF47A7147F6FF738D
:1035CC000022C0FB0132D80B40EA4240F1E700BFB9
:1035DC00540500200C490D4A38B500244FF4004521
:1035EC008C462146C0FB05C100236046FCF7C0FD9C
:1035FC00C117FFF78DFF054A47F6FF73C0FB023476
:10360C00DB0B43EA444038BD3F420F0040420F0001
:10361C00014B9868704700BF5405002038B504462C
:10362C004FF02003EFF3118583F31288BFF36F8FF4
:10363C0000F0B6FF48B10022826700F060FF294617
:10364C000748BDE83840FFF7A9BED4E902329A42D8
:10365C0018BF0133A36085F31188BFF36F8F38BD9A
:10366C009D0D002013B54FF02004EFF3118184F36E
:10367C001288BFF36F8F846844B1013C846081F37E
:10368C001188BFF36F8F002002B010BD52EA030403
:10369C0006D181F31188BFF36F8F6FF00F00F3E742
:1036AC00CDE9002302460248FFF75AFEECE700BFC3
:1036BC009D0D002008B50648064A0749121A00F06D
:1036CC00DCFEBDE80840054A0549064800F0D5BEB9
:1036DC00000000201E0000204C50000000000000E4
:1036EC004C50000000000020034B1B680BB9FFF787
:1036FC000FB80020704700BF8005002010B50E4B9E
:10370C001C689C4204D1FFF7EFFF6FF0004010BD26
:10371C00FFF7EAFF002CF8D0D4E904321B1A62EB55
:10372C00E072B3F1004F72F10001EEDA002AACBF87
:10373C0018460020EBE700BF1400002030B570B134
:10374C000B4B5B6898420AD0036843B1D3E9042160
:10375C00D0E90445121941EB0501C3E90421D0E974
:10376C00003213605A600023C0E9003330BD00BF43
:10377C0014000020B3F1FF3F08BFB2F1FF3FF8B5D2
:10378C0004461D4616465CD081604FF02003EFF3D3
:10379C00118783F31288BFF36F8F013275F1FF33FA
:1037AC0024DA2D49D1E900206FF001039B1A4FF068
:1037BC00FF3262EB00009E1B60EB0500012E70F1E6
:1037CC00000301DA01260020C4E90460234ED6F878
:1037DC0000C07568B44508BF4FF0000CBCF1000F79
:1037EC000DD1C4E900652C6074601CE0FFF77CFF10
:1037FC00013645F10005361845EBE070E4E7DCE9ED
:10380C000420D4E90431934271EB000E1ADAD21A77
:10381C00DCF8043060EB0100CCE90420C4E900C3FF
:10382C001C60CCF804403368B34206D09C4204D1EF
:10383C00FFF764FF0021FEF73DFF87F31188BFF30C
:10384C006F8FF8BD9B1A61EB0001AC45C4E90431E4
:10385C00C7D0DCF800C0C1E7D8030020140000205A
:10386C002DE9F84F4FF02003EFF3118C83F31288FE
:10387C00BFF36F8FDFF8B0A0DFF8B0902C4FC9F812
:10388C000000DAF800000024504508BF0020002595
:10389C00D7E90021D9F80030E04680B3D0E9046CB8
:1038AC004FEAE37EB3427EEB0C0B05DAF61A6CEBB7
:1038BC000E04C0E9046422E0B21841EBE671C0E9E1
:1038CC000445C7E90021FFF739FF88F31188BFF3DE
:1038DC006F8F836898474FF02003EFF3118883F3C1
:1038EC001288BFF36F8FD9F80030DAF800009B1BF9
:1038FC005045C446C9F80030CAD1D7E900219A18FE
:10390C0041EBE3730024C7E90023C9F80040FFF73B
:10391C00F5FE2146FEF7CEFE88F31188BFF36F8FBC
:10392C00BDE8F84FFFF7ECBC140000208005002028
:10393C00D803002010B54FF02003EFF3118483F36C
:10394C001288BFF36F8FFFF7CFFE064A0346D2E90A
:10395C000001181841EBE37184F31188BFF36F8FEA
:10396C0010BD00BFD8030020014800F06BBB00BFA6
:10397C000F500000242A2DE9F041044601D8012AF9
:10398C004CD100F03DFF354B16221A5001B10C60A2
:10399C0000273846BDE8F08135462E4616F8010B57
:1039AC002028F9D0A0F10907042F0346F4D92B28BD
:1039BC0036D02D2837D14FF0010C6B78AE1C302B44
:1039CC0038D1307840F0200078282FD132F0100018
:1039DC002CD173783446102202360CF10040013899
:1039EC000027B0FBF2FE02FB1E08392B82BF03F14D
:1039FC00FF3343F02003263B303B9A421ED97745D8
:103A0C0002DC03D1984501D24CF0020C354607FB81
:103A1C00023715F8013B34462E46E6E70546BCE76F
:103A2C004FF0000CC9E74FF0000CC8E7002A08BFA4
:103A3C000822D2E7002A08BF0A22CEE701B10C60A7
:103A4C001CF0010F18BF7F421CF0020FA1D00746DB
:103A5C0000F0D6FE014B22221A509AE70C0000000F
:103A6C002DE9F04F8DB043680293837815469A0781
:103A7C00804640F10D8100240E78002E00F00A8162
:103A8C00252E0BD04B1C03930134029B4146304630
:103A9C0098470028C0F2F6800399EDE74E788B1C0E
:103AAC00252E0393F0D00027B946BB46BBF11F0F60
:103ABC0038D8A6F12003102B0AD8DFE803F02A0926
:103ACC0009300909092109090928092D09091F00CB
:103ADC00A6F13003092B33D92A2E37D11BF0400F16
:103AEC0055F8043B40F08280002BA7BF4BF0200B15
:103AFC009946C3F100094BF0280B01E04BF0010B88
:103B0C00039B13F8016B0393002ECFD130E04BF0E5
:103B1C00020B4BF0040BF3E74BF0080BF0E74BF008
:103B2C00100BEDE7BBF17F0F19D8A6F13003092B71
:103B3C00D2D81BF0400F03D00A2101FB0737DFE777
:103B4C000A2101FB09394BF0200BD9E72E2E06D1A7
:103B5C001BF0400F40F09E804BF0400BD0E76C2EDA
:103B6C0031D02BD8682E36D06A2E3CD04C2E3AD081
:103B7C00002F46F02003B8BF2BF04002A3F16501E3
:103B8C00BCBF1FFA82FB0027022901D9612B2FD160
:103B9C00073525F00705DFF8ACA2083507271BF021
:103BAC00080F66D00AEB070B56465E4563D1A4EBB3
:103BBC000A0A06EB0A02A9EB07096FE1742E9FD0E3
:103BCC007A2E9DD0D4E71BF0800F18BF4BF4007BEE
:103BDC004BF0800B94E71BF4807F18BF4BF4007BF9
:103BEC004BF4807B8CE74BF4207B89E71F4687E7FF
:103BFC00A6F16301122900F2F080DFE811F0130046
:103C0C004F00EE00EE00EE00EE004F00EE00EE0076
:103C1C00EE00EE00EE00FE00E900EE00EE001B00F0
:103C2C00EE00AF0055F8043B8DF8183001270DF16C
:103C3C00180AB4E755F804AB834BBAF1000F08BF70
:103C4C009A461BF0400F14BF39464FF0FF315046D7
:103C5C0000F040FD0746A2E7029B41462020984712
:103C6C0000280FDB013EB742F6D34C44A41BB146EF
:103C7C0098E74E46F7E716F8010B029B414698472A
:103C8C00002892DA98F8023043F0040388F80230E6
:103C9C004FF0FF3420460DB0BDE8F08F1BF0800FC5
:103CAC0034D01BF4007F2CD0073525F00705AA462D
:103CBC0069685AF8080B2BF010050029ADB237DAF9
:103CCC00404261EB410145F480650DF1180B0A236C
:103CDC005A4600F036FDA0EB0B0301936B0662D540
:103CEC00019B25F001019F4289B240F3A180002E77
:103CFC0000F0998015F0100240F09C80BB460D46F8
:103D0C0023E0AA465AF8040BC117D4E7AA461BF4C1
:103D1C00807F5AF8041B01D10846F5E71BF4007F9D
:103D2C0015BF48B208B241F3C01141F3C031C2E72C
:103D3C0050EA0103C9D11BF0400FC6D0002FC4D1EB
:103D4C002BF0110295B2BB46019740F2064115EAE1
:103D5C0001021CBF0BF1010B00222CE02BF0100216
:103D6C001FFA82FB0A231BF0800C49D01BF4007154
:103D7C001DBF073525F00705AA46AA461ABF5AF8F3
:103D8C00080B69685AF8040B50EA010545D12BF071
:103D9C0016051BF0400FADB242D0002F40D12BF0D6
:103DAC00170295B2019715F0100248D0019B002E16
:103DBC0042D103F1010B29075AD4EB0706D5D9459B
:103DCC006FDD0199A9EB0B035F18CB465B4649E00D
:103DDC004BF0100B10237826C5E7782B04D1C6F1D5
:103DEC00780343F01003BEE7029B41462520984719
:103DFC000028FFF647AF023447E608230026B2E757
:103E0C00AA461BF480715AF8040BBDD01BF4007148
:103E1C001ABFC0B2614680B2B6E72BF0060295B26B
:103E2C000DF1180B54E725F01105ADB2BB468CE72C
:103E3C000D46B8E73B460D4603F1020BBBE7DDF838
:103E4C0004B082E7445000003D500000CDE904323C
:103E5C004146029B202098470028FFF613AF049B95
:103E6C00059A01339945F1DCA4EB0B01CC189B4668
:103E7C000AB3029B4146302098470028FFF602AF58
:103E8C008EB901342744019B391B994224DC1D4611
:103E9C005DBB019AA9EB0B0922445546144691448B
:103EAC0035E0019F92E7023441463046029B984729
:103EBC000028E7DAE6E640F206410D42E2D015F0C2
:103ECC00020F14BF2B20202015F4806F04F1010485
:103EDC00414618BF2D20E9E7029B41463020984708
:103EEC00002804F10104CEDACCE606AB013D4146D4
:103EFC00585D029B98470028CADAC3E6029B4146EC
:103F0C0020209847002804F10104FFF6BBAEA9EB72
:103F1C000403002BF2DCBFE570B588B004460D46F7
:103F2C00164600211C2201A800F0B6FB02238DF8D6
:103F3C000630094B029304F10043013B32462946FB
:103F4C0001A806930594FFF78BFD0028A4BF00235E
:103F5C00235408B070BD00BFFD4700007047704788
:103F6C0008B5FDF757F9BDE80840FDF745B900EB7A
:103F7C00C100408840087047F8B50346FFF7F7FFCB
:103F8C00B0FA80F0C0F11F0003EB800CCA00DCF823
:103F9C001060171D0C4606328DB256B9012101FA7C
:103FAC0000F0D9680143D960CCF81040DD539D5224
:103FBC00F8BDF1000431585AD85303EBC0009E529F
:103FCC00C5805D52F4E7043A2DE9F041CC1D114453
:103FDC0024F0070421F007010E1BF708B7FA87F24B
:103FEC00C2F12405AD004FF000080735C2F12002E4
:103FFC00ED0804604146A760C4F80C80920004F1FF
:10400C00100000F049FB6B0043F00103638004EBEC
:10401C00C5027B1B5900A4F800805180A21924F81A
:10402C003550A2F80280A35304EBC70329465A88E3
:10403C0042F001025A802046BDE8F041FFF79CBFD8
:10404C00002070470FB407B504A951F8040B019177
:10405C00FDF7F4F803B05DF804EB04B07047838B04
:10406C0013F0070305D10368002B0CBF00200320BD
:10407C007047022B05D1C08BB0FA80F0400980004C
:10408C007047012B05D10368002B0CBF00200520C5
:10409C0070470020704710B50C4600B111B96FF095
:1040AC00150010BD081D00F095F80028F9D1A36883
:1040BC00032BF6D9F3E72DE9F0410D4607461946D7
:1040CC00281D90461E4600F096F8044638B133463B
:1040DC00424629463846A446BDE8F0416047BDE853
:1040EC00F08110B44FF02004EFF3118284F31288A6
:1040FC00BFF36F8F816110BC0121FDF74FB938B54B
:10410C000C46054658B151B10B6843B14B6833B1FD
:10411C002022002100F0C0FA2C61002038BD6FF085
:10412C001500FBE770B505460E46FFF7B4FF041EFD
:10413C0015DB4FF02003EFF3118283F31288BFF3EA
:10414C006F8FEB8BAC8B4FF6FF718B4204F0070437
:10415C0007D182F31188BFF36F8F6FF00A042046EA
:10416C0070BD022C0CD10133EB8382F31188BFF3A9
:10417C006F8F0023224631462846FFF79CFFEEE75F
:10418C00062C14D8DFE804F004131313041A0400EB
:10419C00002333606B683BB9C5E90066ACB90221FA
:1041AC002846FDF7FBF8DAE71E606E60F6E782F34F
:1041BC001188BFF36F8F6FF00404D0E782F311887E
:1041CC00BFF36F8F6FF08504C9E782F31188BFF3DB
:1041DC006F8FC4E7034658B1426802F00302012A0C
:1041EC0003D0032A04D1026812B1002098607047F2
:1041FC006FF0150070474268816002F00302032AD9
:10420C004FF0000203460CBF006810465A6070471E
:10421C007047FEF767BD01460068FEF763BD08B541
:10422C00FDF7D0F9BDE80840FDF7F0B900210120F9
:10423C00FFF7EFBF202809D9B0F1004F08D801389B
:10424C00B0FA80F0C0F11F004000704708207047A2
:10425C003E20704708B5FDF75DFE002008BD0369E0
:10426C00C9B20C2201FB0233986C00F007007047B6
:10427C004FF02003EFF3118283F31288BFF36F8F9B
:10428C00036803F0C00343F00203036082F3118858
:10429C00BFF36F8F704770B5C9B203694FF020043C
:1042AC00EFF3118584F31288BFF36F8F0C2606FB96
:1042BC000134A46C14F0C00408D0A24206D085F3DB
:1042CC001188BFF36F8F4FF0FF3070BD06FB0133C9
:1042DC0001229A6485F31188BFF36F8F436803EB57
:1042EC00C1035B6898470020EFE78022FFF7D3BF3C
:1042FC00F8B5069F0469C9B24FF02005EFF311869B
:10430C0085F31288BFF36F8F0C2505FB0144A56C58
:10431C0005F0070CBCF1010F0CD1A76486F31188D2
:10432C00BFF36F8FC4E91023436853F831309847BB
:10433C000020F8BD05F0C005AF4286F31188BFF32D
:10434C006F8F0CBF6FF077004FF0FF30F1E713B5B4
:10435C0080240094FFF7CCFF02B010BD0069CBB2F3
:10436C0000EB431000211047002000F024B8104649
:10437C00FFF754B900F150039B009BB203F180434B
:10438C0003F5883300221A601B68704708B50020BB
:10439C00FDF7CAFA4FF08053D3F83001421C04BF2A
:1043AC004FF0704393F8E00F831F58425841704709
:1043BC00004700F05CB8FEF707BB0369C268934284
:1043CC009CBF81685B18013B981A70472DE9F0413E
:1043DC00D0E902840546A8EB0406406896422044C6
:1043EC000F46144406D900F049F9BFF35F8FEC6017
:1043FC00BDE8F0813246A4EB080400F03FF9686890
:10440C002246B919EFE72DE9F843C56806468946F7
:10441C0017464FF000083369B46870689D4228BF96
:10442C001B19641BBC4203F1FF3328BF3C465B1BCA
:10443C009C4228BF1C4649462246284400F01EF9DF
:10444C00B3682544A044A1443F1BAB4208BF0025E0
:10445C00BFF35F8FF560002FDDD14046BDE8F883D8
:10446C00FEF7E0BB08B5FFF7FBFF002008BD08B165
:10447C00FDF77EBD704700F00FB900F0FFB8EFF309
:10448C000580003818BF01207047D0E90032136056
:10449C005A600023C0E90033704708B5FFF7F5FFF9
:1044AC00437B23F0020343730023836008BD38B5BC
:1044BC0004460D46FEF7A4FE637B43F002036373D0
:1044CC00E5B1A5602B689D4209D16B68C4E9005326
:1044DC001C606C6012E06A689342F6D01B68002B7B
:1044EC00F3D094F90E2093F90E108A42F3D0914236
:1044FC00F1DD5A68C4E9003214605C6038BD10B557
:10450C004FF02003EFF3118483F31288BFF36F8F06
:10451C00FEF742FE84F31188BFF36F8F10BD10B508
:10452C000446183000F08FF84FF02003EFF31181A0
:10453C0083F31288BFF36F8F627B12F0100204D0EA
:10454C0081F31188BFF36F8F10BD2046BDE810407A
:10455C00FEF786BE38B504464FF02003EFF3118505
:10456C0083F31288BFF36F8F437B13F0280F0BD1AB
:10457C0083680BB1FFF791FF637B51B903F0FB0329
:10458C0063732046FEF708FE85F31188BFF36F8F27
:10459C0038BD03F0EB03F3E701211838FFF7DABF5E
:1045AC0038B54FF02003EFF3118583F31288BFF376
:1045BC006F8F0468A0420DD034B12046FFF76DFF19
:1045CC0004F1180000F03FF885F31188BFF36F8FEA
:1045DC00204638BD0024F7E74FF02003EFF311809D
:1045EC0083F31288BFF36F8FFEF708BF4FF02002E2
:1045FC00EFF3118182F31288BFF36F8F027BD20726
:10460C000AD581F31188BFF36F8F404080F3118876
:10461C004FF0040002DF7047437B1B0704D581F386
:10462C001188BFF36F8F70470122FEF719BE08B5D2
:10463C004FF02002EFF3118382F31288BFF36F8FD8
:10464C00FDF7DCFAF4E710B54FF02002EFF311841C
:10465C0082F31288BFF36F8F03683BB1FFF76EF8DC
:10466C00002084F31188BFF36F8F10BD6FF015001D
:10467C00F7E708B5FFF75EF908BD70470A449142A9
:10468C0000F1FF3300D1704710B511F8014B03F85E
:10469C00014F9142F9D110BD02440346934200D11F
:1046AC00704703F8011BF9E70A220021FFF762B9F2
:1046BC0010B56AB10139841810F8012B11F8013FBB
:1046CC009A4203D1A04201D0002AF5D1D01A10BDD4
:1046DC001046FCE710B5024601448A42134603D04B
:1046EC001C780132002CF8D1181A10BDF0B5044614
:1046FC0008B9146844B1204614F8015B0F4617F84A
:10470C00016B1EB965B91560002005E0B542F6D104
:10471C00002BF0D114600370F0BD1C460CE015B9F1
:10472C0014F8013B0E4616F8015BAB42F7D1002B97
:10473C00F3D0002304F8013C1460EDE70123FFF7EC
:10474C00D5BFF0B5C3F137070446FFB203F01F0322
:10475C001046082BE6B233D0102B3ED06508A408C7
:10476C0044EA817445EAC1752D194FEA910242EB76
:10477C005102290941EA02716D1842EB1212290A01
:10478C0041EA02616D1842EB1222290C41EA024106
:10479C006D1842EB1242AD1842F10002EC0844EAEB
:1047AC004274D10804EB8402A6EB4205EDB2092D4C
:1047BC000CD90134A5F10A0541F10001EDB212E06A
:1047CC00E40844EA417406F00705C908303554EA98
:1047DC00010200F8015BBCD1F0BD240944EA01746C
:1047EC0006F00F050909092D84BFED19EDB2EDE7AF
:1047FC00D1E9043293421EBF5A1C0A6118707047EB
:0C480C0001480068704700000404002010
:0848180098B9FF7F01000000C8
:104820006D1F0000000000002D2000005048000017
:1048300071440000000000008D2200000000000014
:104840005D25000000000000491F0000000000007E
:10485000CD4F0000004A0000104A00001C0000205C
:0448600038040020F8
:10486400C92B0000BD4300000000000039420000D5
:10487400000000003942000000000000394200003E
:10488400000000003942000000000000394200002E
:10489400000000003942000000000000394200001E
:1048A400000000003942000000000000394200000E
:1048B40000000000394200000000000039420000FE
:1048C40000000000394200000000000039420000EE
:1048D40000000000394200000000000039420000DE
:1048E400000000003942000000000000ED25000037
:1048F40000000000394200000000000039420000BE
:1049040000000000394200000000000039420000AD
:10491400000000003942000000000000394200009D
:10492400000000003942000000000000394200008D
:10493400000000003942000000000000394200007D
:10494400000000003942000000000000394200006D
:10495400000000003942000000000000394200005D
:10496400000000003942000000000000394200004D
:10497400000000003942000000000000394200003D
:10498400000000003942000000000000394200002D
:084994000000000039420000A0
:0C499C000000000000000000000000000F
:0849A800FFFFFFFFFFFFFFFF0F
:1049B0000A000000090000000000D601000000000D
:1049C0000338FDD870470000000000200000000000
:1049D00000000B0602000000DC490000000000009F
:1049E000BE4F00002400020700000020C64F000058
:1049F0001E000B11BD1F0000951F000000000000ED
:104A0000D5200000F91F00006D2100007543000053
:104A100039210000F74200005B4300000000000065
:104A20006B42000000000000000000002048000071
:104A3000204800004048000048480000504800005E
:104A40005048000041542B43455245473F004154D4
:104A50002B51454E473D2273657276696E676365DB
:104A60006C6C220041542B51494143543D3100416B
:104A7000542B434750414444523D310041542B5143
:104A800050494E473D312C2261336F76703769367D
:104A90003139656336712D6174732E696F742E75AB
:104AA000732D656173742D312E616D617A6F6E6146
:104AB00077732E636F6D220041542B51464C535433
:104AC0003D222A220041542B514D544346473D225A
:104AD000726563762F6D6F6465222C302C302C311B
:104AE0000041542B514D544346473D2273736C2271
:104AF0002C302C312C320041542B5153534C434613
:104B0000473D22636163657274222C322C226361FB
:104B1000636572742E70656D220041542B5153539E
:104B20004C4346473D22636C69656E7463657274DD
:104B3000222C322C22636C69656E742E70656D2296
:104B40000041542B5153534C4346473D22636C69FB
:104B5000656E746B6579222C322C22757365725FD9
:104B60006B65792E70656D220041542B5153534C67
:104B70004346473D227365636C6576656C222C3233
:104B80002C320041542B5153534C4346473D227322
:104B9000736C76657273696F6E222C322C3400410F
:104BA000542B5153534C4346473D2263697068650B
:104BB000727375697465222C322C307846464646ED
:104BC0000041542B5153534C4346473D2269676E75
:104BD0006F72656C6F63616C74696D65222C322C29
:104BE000310041542B514D544F50454E3D302C22F5
:104BF00061336F76703769363139656336712D618F
:104C000074732E696F742E75732D656173742D31F5
:104C10002E616D617A6F6E6177732E636F6D222CDA
:104C2000383838330041542B514D54434F4E4E3D8C
:104C3000302C22736D6172744B69743030312200F4
:104C400041575320436F6E6E65637465640A00417B
:104C5000542B514D5450554245583D302C312C3138
:104C60002C302C226177732F736D6172744B6974D1
:104C70003030312F646174612F7265706F72742FE0
:104C80006D657373616765222C3233007B226D651D
:104C90007373616765223A202254455354227D0084
:104CA000415753206D6573736167652073656E644A
:104CB00065640A0041542B4353434C4B3D31004142
:104CC000542B514750534346473D22676E737363DD
:104CD0006F6E666967222C300041542B5147505348
:104CE000454E44006C6F7720706F776572206D6F52
:104CF0006465206F6E0A0041542B514D5453554248
:104D00003D302C312C226177732F736D6172744B9F
:104D100069743030312F646174612F7265706F7205
:104D2000742F6D657373616765222C310041542BBC
:104D30004353434C4B3D300041542B514750533D5E
:104D400031004C6F7720706F776572206D6F6465EE
:104D5000206F66660A004C5445206D6F64656D20B7
:104D6000696E697469616C697A65642E0A004750DE
:104D7000494F5445205365742E0A004C5445206D0C
:104D80006F64656D20706F776572206163746976FA
:104D9000617465642E0A004563686F204F66662063
:104DA0006576656E74730A004E6F20494D45492043
:104DB000696E666F726D6174696F6E2E20517565D4
:104DC000727920494D45492E0D0A00494D4549202B
:104DD0004361707475726564203A2025730A004E31
:104DE0006F20494343494420696E666F726D617458
:104DF000696F6E2E2051756572792049434349448D
:104E00002E0D0A0049434349442043617074757272
:104E10006564203A2025730A004E6F20494D53499E
:104E200020696E666F726D6174696F6E2E205175A8
:104E30006572792049434349442E0D0A00494D5378
:104E400049204361707475726564203A2025730AA5
:104E500000412F0054656D70203A2025730D0A0023
:104E60002B51494E443A2022504F574552222C3163
:104E7000005244590041544531002B51494E443AA7
:104E800020504220444F4E450041544530002B43B2
:104E900050494E3A205245414459002B4350494E07
:104EA0003A204E4F5420494E534552544544002B0E
:104EB000434D450020002B5143434944002B4352AE
:104EC00045470041542B435245473F002C002B518E
:104ED0004C5453003A002B004F4B0041542B514986
:104EE0004143543D310D0A0041542B514854545014
:104EF00043464700687474700041542B514944453F
:104F000041435400434F4E4E4543540041542B51AE
:104F10004854545055524C0041542B51485454500D
:104F2000504F5354002B51494E443A2022464F547F
:104F300041222C22535441525422002B51494E44B9
:104F40003A2022464F5441222C22454E4422002B27
:104F500051494E443A2022464F544122002B514B96
:104F600054464F54413A20323030002B5155524371
:104F70003A2022444D432D41504E22004552524F7B
:104F8000520041542B47534E0D0A0038360041540D
:104F90002B43494D490D0A004556454E54535F5227
:104FA00058544F0A0041542B51434349440D0A00C1
:104FB000415445310D0A00415445300D0A00464C1C
:104FC0004153485F30005352414D5F3000636C6F76
:104FD000636B40343030303030303000000000003F
:104FE00001000000010100000101010100000000BA
:104FF0005465726D696E616C000000000000005421
:10500000545220524547474553006D61696E002A4E
:105010002A2A20426F6F74696E67206E52462043C1
:105020006F6E6E6563742053444B20376132326477
:1050300061343363316434202A2A2A0A00286E75C9
:0C5040006C6C29002A666C6F61742A00F9
:10504C004D40000000000000614200000000000024
:0C505C00000000001400002014000020E0
:02506800000046
:04506A0015E015E058
:04000003000018E100
:00000001FF
